{
  "_format": "hh-sol-artifact-1",
  "contractName": "CarbonCreditNFT",
  "sourceName": "contracts/CarbonCreditNFT.sol",
  "abi": [
    {
      "inputs": [
        {
          "internalType": "address",
          "name": "initialOwner",
          "type": "address"
        }
      ],
      "stateMutability": "nonpayable",
      "type": "constructor"
    },
    {
      "inputs": [
        {
          "internalType": "address",
          "name": "sender",
          "type": "address"
        },
        {
          "internalType": "uint256",
          "name": "tokenId",
          "type": "uint256"
        },
        {
          "internalType": "address",
          "name": "owner",
          "type": "address"
        }
      ],
      "name": "ERC721IncorrectOwner",
      "type": "error"
    },
    {
      "inputs": [
        {
          "internalType": "address",
          "name": "operator",
          "type": "address"
        },
        {
          "internalType": "uint256",
          "name": "tokenId",
          "type": "uint256"
        }
      ],
      "name": "ERC721InsufficientApproval",
      "type": "error"
    },
    {
      "inputs": [
        {
          "internalType": "address",
          "name": "approver",
          "type": "address"
        }
      ],
      "name": "ERC721InvalidApprover",
      "type": "error"
    },
    {
      "inputs": [
        {
          "internalType": "address",
          "name": "operator",
          "type": "address"
        }
      ],
      "name": "ERC721InvalidOperator",
      "type": "error"
    },
    {
      "inputs": [
        {
          "internalType": "address",
          "name": "owner",
          "type": "address"
        }
      ],
      "name": "ERC721InvalidOwner",
      "type": "error"
    },
    {
      "inputs": [
        {
          "internalType": "address",
          "name": "receiver",
          "type": "address"
        }
      ],
      "name": "ERC721InvalidReceiver",
      "type": "error"
    },
    {
      "inputs": [
        {
          "internalType": "address",
          "name": "sender",
          "type": "address"
        }
      ],
      "name": "ERC721InvalidSender",
      "type": "error"
    },
    {
      "inputs": [
        {
          "internalType": "uint256",
          "name": "tokenId",
          "type": "uint256"
        }
      ],
      "name": "ERC721NonexistentToken",
      "type": "error"
    },
    {
      "inputs": [
        {
          "internalType": "address",
          "name": "owner",
          "type": "address"
        }
      ],
      "name": "OwnableInvalidOwner",
      "type": "error"
    },
    {
      "inputs": [
        {
          "internalType": "address",
          "name": "account",
          "type": "address"
        }
      ],
      "name": "OwnableUnauthorizedAccount",
      "type": "error"
    },
    {
      "anonymous": false,
      "inputs": [
        {
          "indexed": true,
          "internalType": "address",
          "name": "owner",
          "type": "address"
        },
        {
          "indexed": true,
          "internalType": "address",
          "name": "approved",
          "type": "address"
        },
        {
          "indexed": true,
          "internalType": "uint256",
          "name": "tokenId",
          "type": "uint256"
        }
      ],
      "name": "Approval",
      "type": "event"
    },
    {
      "anonymous": false,
      "inputs": [
        {
          "indexed": true,
          "internalType": "address",
          "name": "owner",
          "type": "address"
        },
        {
          "indexed": true,
          "internalType": "address",
          "name": "operator",
          "type": "address"
        },
        {
          "indexed": false,
          "internalType": "bool",
          "name": "approved",
          "type": "bool"
        }
      ],
      "name": "ApprovalForAll",
      "type": "event"
    },
    {
      "anonymous": false,
      "inputs": [
        {
          "indexed": false,
          "internalType": "uint256",
          "name": "_fromTokenId",
          "type": "uint256"
        },
        {
          "indexed": false,
          "internalType": "uint256",
          "name": "_toTokenId",
          "type": "uint256"
        }
      ],
      "name": "BatchMetadataUpdate",
      "type": "event"
    },
    {
      "anonymous": false,
      "inputs": [
        {
          "indexed": false,
          "internalType": "uint256",
          "name": "tokenId",
          "type": "uint256"
        },
        {
          "indexed": false,
          "internalType": "address",
          "name": "owner",
          "type": "address"
        }
      ],
      "name": "CreditRetired",
      "type": "event"
    },
    {
      "anonymous": false,
      "inputs": [
        {
          "indexed": false,
          "internalType": "uint256",
          "name": "_tokenId",
          "type": "uint256"
        }
      ],
      "name": "MetadataUpdate",
      "type": "event"
    },
    {
      "anonymous": false,
      "inputs": [
        {
          "indexed": true,
          "internalType": "address",
          "name": "previousOwner",
          "type": "address"
        },
        {
          "indexed": true,
          "internalType": "address",
          "name": "newOwner",
          "type": "address"
        }
      ],
      "name": "OwnershipTransferred",
      "type": "event"
    },
    {
      "anonymous": false,
      "inputs": [
        {
          "indexed": true,
          "internalType": "address",
          "name": "from",
          "type": "address"
        },
        {
          "indexed": true,
          "internalType": "address",
          "name": "to",
          "type": "address"
        },
        {
          "indexed": true,
          "internalType": "uint256",
          "name": "tokenId",
          "type": "uint256"
        }
      ],
      "name": "Transfer",
      "type": "event"
    },
    {
      "inputs": [
        {
          "internalType": "address",
          "name": "certifier",
          "type": "address"
        }
      ],
      "name": "addCertifier",
      "outputs": [],
      "stateMutability": "nonpayable",
      "type": "function"
    },
    {
      "inputs": [
        {
          "internalType": "address",
          "name": "to",
          "type": "address"
        },
        {
          "internalType": "uint256",
          "name": "tokenId",
          "type": "uint256"
        }
      ],
      "name": "approve",
      "outputs": [],
      "stateMutability": "nonpayable",
      "type": "function"
    },
    {
      "inputs": [
        {
          "internalType": "address",
          "name": "",
          "type": "address"
        }
      ],
      "name": "approvedCertifiers",
      "outputs": [
        {
          "internalType": "bool",
          "name": "",
          "type": "bool"
        }
      ],
      "stateMutability": "view",
      "type": "function"
    },
    {
      "inputs": [
        {
          "internalType": "address",
          "name": "owner",
          "type": "address"
        }
      ],
      "name": "balanceOf",
      "outputs": [
        {
          "internalType": "uint256",
          "name": "",
          "type": "uint256"
        }
      ],
      "stateMutability": "view",
      "type": "function"
    },
    {
      "inputs": [
        {
          "internalType": "uint256",
          "name": "tokenId",
          "type": "uint256"
        }
      ],
      "name": "getApproved",
      "outputs": [
        {
          "internalType": "address",
          "name": "",
          "type": "address"
        }
      ],
      "stateMutability": "view",
      "type": "function"
    },
    {
      "inputs": [
        {
          "internalType": "address",
          "name": "owner",
          "type": "address"
        },
        {
          "internalType": "address",
          "name": "operator",
          "type": "address"
        }
      ],
      "name": "isApprovedForAll",
      "outputs": [
        {
          "internalType": "bool",
          "name": "",
          "type": "bool"
        }
      ],
      "stateMutability": "view",
      "type": "function"
    },
    {
      "inputs": [
        {
          "internalType": "address",
          "name": "to",
          "type": "address"
        },
        {
          "internalType": "string",
          "name": "uri",
          "type": "string"
        }
      ],
      "name": "mintCredit",
      "outputs": [
        {
          "internalType": "uint256",
          "name": "",
          "type": "uint256"
        }
      ],
      "stateMutability": "nonpayable",
      "type": "function"
    },
    {
      "inputs": [],
      "name": "name",
      "outputs": [
        {
          "internalType": "string",
          "name": "",
          "type": "string"
        }
      ],
      "stateMutability": "view",
      "type": "function"
    },
    {
      "inputs": [],
      "name": "owner",
      "outputs": [
        {
          "internalType": "address",
          "name": "",
          "type": "address"
        }
      ],
      "stateMutability": "view",
      "type": "function"
    },
    {
      "inputs": [
        {
          "internalType": "uint256",
          "name": "tokenId",
          "type": "uint256"
        }
      ],
      "name": "ownerOf",
      "outputs": [
        {
          "internalType": "address",
          "name": "",
          "type": "address"
        }
      ],
      "stateMutability": "view",
      "type": "function"
    },
    {
      "inputs": [],
      "name": "renounceOwnership",
      "outputs": [],
      "stateMutability": "nonpayable",
      "type": "function"
    },
    {
      "inputs": [
        {
          "internalType": "uint256",
          "name": "tokenId",
          "type": "uint256"
        }
      ],
      "name": "retireCredit",
      "outputs": [],
      "stateMutability": "nonpayable",
      "type": "function"
    },
    {
      "inputs": [
        {
          "internalType": "uint256",
          "name": "tokenId",
          "type": "uint256"
        }
      ],
      "name": "revokeCredit",
      "outputs": [],
      "stateMutability": "nonpayable",
      "type": "function"
    },
    {
      "inputs": [
        {
          "internalType": "address",
          "name": "from",
          "type": "address"
        },
        {
          "internalType": "address",
          "name": "to",
          "type": "address"
        },
        {
          "internalType": "uint256",
          "name": "tokenId",
          "type": "uint256"
        }
      ],
      "name": "safeTransferFrom",
      "outputs": [],
      "stateMutability": "nonpayable",
      "type": "function"
    },
    {
      "inputs": [
        {
          "internalType": "address",
          "name": "from",
          "type": "address"
        },
        {
          "internalType": "address",
          "name": "to",
          "type": "address"
        },
        {
          "internalType": "uint256",
          "name": "tokenId",
          "type": "uint256"
        },
        {
          "internalType": "bytes",
          "name": "data",
          "type": "bytes"
        }
      ],
      "name": "safeTransferFrom",
      "outputs": [],
      "stateMutability": "nonpayable",
      "type": "function"
    },
    {
      "inputs": [
        {
          "internalType": "address",
          "name": "operator",
          "type": "address"
        },
        {
          "internalType": "bool",
          "name": "approved",
          "type": "bool"
        }
      ],
      "name": "setApprovalForAll",
      "outputs": [],
      "stateMutability": "nonpayable",
      "type": "function"
    },
    {
      "inputs": [
        {
          "internalType": "bytes4",
          "name": "interfaceId",
          "type": "bytes4"
        }
      ],
      "name": "supportsInterface",
      "outputs": [
        {
          "internalType": "bool",
          "name": "",
          "type": "bool"
        }
      ],
      "stateMutability": "view",
      "type": "function"
    },
    {
      "inputs": [],
      "name": "symbol",
      "outputs": [
        {
          "internalType": "string",
          "name": "",
          "type": "string"
        }
      ],
      "stateMutability": "view",
      "type": "function"
    },
    {
      "inputs": [
        {
          "internalType": "uint256",
          "name": "tokenId",
          "type": "uint256"
        }
      ],
      "name": "tokenURI",
      "outputs": [
        {
          "internalType": "string",
          "name": "",
          "type": "string"
        }
      ],
      "stateMutability": "view",
      "type": "function"
    },
    {
      "inputs": [
        {
          "internalType": "address",
          "name": "from",
          "type": "address"
        },
        {
          "internalType": "address",
          "name": "to",
          "type": "address"
        },
        {
          "internalType": "uint256",
          "name": "tokenId",
          "type": "uint256"
        }
      ],
      "name": "transferFrom",
      "outputs": [],
      "stateMutability": "nonpayable",
      "type": "function"
    },
    {
      "inputs": [
        {
          "internalType": "address",
          "name": "newOwner",
          "type": "address"
        }
      ],
      "name": "transferOwnership",
      "outputs": [],
      "stateMutability": "nonpayable",
      "type": "function"
    }
  ],
  "bytecode": "0x608060405234801561000f575f5ffd5b50604051612f1b380380612f1b83398181016040528101906100319190610266565b806040518060400160405280600f81526020017f436172626f6e4372656469744e465400000000000000000000000000000000008152506040518060400160405280600581526020017f43434e4654000000000000000000000000000000000000000000000000000000815250815f90816100ac91906104ce565b5080600190816100bc91906104ce565b5050505f73ffffffffffffffffffffffffffffffffffffffff168173ffffffffffffffffffffffffffffffffffffffff160361012f575f6040517f1e4fbdf700000000000000000000000000000000000000000000000000000000815260040161012691906105ac565b60405180910390fd5b61013e8161014560201b60201c565b50506105c5565b5f60075f9054906101000a900473ffffffffffffffffffffffffffffffffffffffff1690508160075f6101000a81548173ffffffffffffffffffffffffffffffffffffffff021916908373ffffffffffffffffffffffffffffffffffffffff1602179055508173ffffffffffffffffffffffffffffffffffffffff168173ffffffffffffffffffffffffffffffffffffffff167f8be0079c531659141344cd1fd0a4f28419497f9722a3daafe3b4186f6b6457e060405160405180910390a35050565b5f5ffd5b5f73ffffffffffffffffffffffffffffffffffffffff82169050919050565b5f6102358261020c565b9050919050565b6102458161022b565b811461024f575f5ffd5b50565b5f815190506102608161023c565b92915050565b5f6020828403121561027b5761027a610208565b5b5f61028884828501610252565b91505092915050565b5f81519050919050565b7f4e487b71000000000000000000000000000000000000000000000000000000005f52604160045260245ffd5b7f4e487b71000000000000000000000000000000000000000000000000000000005f52602260045260245ffd5b5f600282049050600182168061030c57607f821691505b60208210810361031f5761031e6102c8565b5b50919050565b5f819050815f5260205f209050919050565b5f6020601f8301049050919050565b5f82821b905092915050565b5f600883026103817fffffffffffffffffffffffffffffffffffffffffffffffffffffffffffffffff82610346565b61038b8683610346565b95508019841693508086168417925050509392505050565b5f819050919050565b5f819050919050565b5f6103cf6103ca6103c5846103a3565b6103ac565b6103a3565b9050919050565b5f819050919050565b6103e8836103b5565b6103fc6103f4826103d6565b848454610352565b825550505050565b5f5f905090565b610413610404565b61041e8184846103df565b505050565b5b81811015610441576104365f8261040b565b600181019050610424565b5050565b601f8211156104865761045781610325565b61046084610337565b8101602085101561046f578190505b61048361047b85610337565b830182610423565b50505b505050565b5f82821c905092915050565b5f6104a65f198460080261048b565b1980831691505092915050565b5f6104be8383610497565b9150826002028217905092915050565b6104d782610291565b67ffffffffffffffff8111156104f0576104ef61029b565b5b6104fa82546102f5565b610505828285610445565b5f60209050601f831160018114610536575f8415610524578287015190505b61052e85826104b3565b865550610595565b601f19841661054486610325565b5f5b8281101561056b57848901518255600182019150602085019450602081019050610546565b868310156105885784890151610584601f891682610497565b8355505b6001600288020188555050505b505050505050565b6105a68161022b565b82525050565b5f6020820190506105bf5f83018461059d565b92915050565b612949806105d25f395ff3fe608060405234801561000f575f5ffd5b5060043610610135575f3560e01c80636352211e116100b6578063a22cb4651161007a578063a22cb46514610349578063b88d4fde14610365578063c87b56dd14610381578063e985e9c5146103b1578063eb899eeb146103e1578063f2fde38b146103fd57610135565b80636352211e146102a357806370a08231146102d3578063715018a6146103035780638da5cb5b1461030d57806395d89b411461032b57610135565b80631e7c0481116100fd5780631e7c0481146101ef57806323b872dd1461021f5780632b1983661461023b5780633212cb6d1461025757806342842e0e1461028757610135565b806301ffc9a71461013957806306fdde0314610169578063081812fc14610187578063095ea7b3146101b75780630ef7377b146101d3575b5f5ffd5b610153600480360381019061014e9190611d8a565b610419565b6040516101609190611dcf565b60405180910390f35b61017161042a565b60405161017e9190611e58565b60405180910390f35b6101a1600480360381019061019c9190611eab565b6104b9565b6040516101ae9190611f15565b60405180910390f35b6101d160048036038101906101cc9190611f58565b6104d4565b005b6101ed60048036038101906101e89190611eab565b6104ea565b005b61020960048036038101906102049190611f96565b6104fe565b6040516102169190611dcf565b60405180910390f35b61023960048036038101906102349190611fc1565b61051b565b005b61025560048036038101906102509190611f96565b61061a565b005b610271600480360381019061026c919061213d565b61067a565b60405161027e91906121a6565b60405180910390f35b6102a1600480360381019061029c9190611fc1565b6106ba565b005b6102bd60048036038101906102b89190611eab565b6106d9565b6040516102ca9190611f15565b60405180910390f35b6102ed60048036038101906102e89190611f96565b6106ea565b6040516102fa91906121a6565b60405180910390f35b61030b6107a0565b005b6103156107b3565b6040516103229190611f15565b60405180910390f35b6103336107db565b6040516103409190611e58565b60405180910390f35b610363600480360381019061035e91906121e9565b61086b565b005b61037f600480360381019061037a91906122c5565b610881565b005b61039b60048036038101906103969190611eab565b6108a6565b6040516103a89190611e58565b60405180910390f35b6103cb60048036038101906103c69190612345565b6108b8565b6040516103d89190611dcf565b60405180910390f35b6103fb60048036038101906103f69190611eab565b610946565b005b61041760048036038101906104129190611f96565b610a06565b005b5f61042382610a8a565b9050919050565b60605f8054610438906123b0565b80601f0160208091040260200160405190810160405280929190818152602001828054610464906123b0565b80156104af5780601f10610486576101008083540402835291602001916104af565b820191905f5260205f20905b81548152906001019060200180831161049257829003601f168201915b5050505050905090565b5f6104c382610aea565b506104cd82610b70565b9050919050565b6104e682826104e1610ba9565b610bb0565b5050565b6104f2610bc2565b6104fb81610c49565b50565b6009602052805f5260405f205f915054906101000a900460ff1681565b5f73ffffffffffffffffffffffffffffffffffffffff168273ffffffffffffffffffffffffffffffffffffffff160361058b575f6040517f64a0ae920000000000000000000000000000000000000000000000000000000081526004016105829190611f15565b60405180910390fd5b5f61059e8383610599610ba9565b610ccb565b90508373ffffffffffffffffffffffffffffffffffffffff168173ffffffffffffffffffffffffffffffffffffffff1614610614578382826040517f64283d7b00000000000000000000000000000000000000000000000000000000815260040161060b939291906123e0565b60405180910390fd5b50505050565b610622610bc2565b600160095f8373ffffffffffffffffffffffffffffffffffffffff1673ffffffffffffffffffffffffffffffffffffffff1681526020019081526020015f205f6101000a81548160ff02191690831515021790555050565b5f610683610bc2565b5f60085f81548092919061069690612442565b9190505590506106a68482610ed6565b6106b08184610ef3565b8091505092915050565b6106d483838360405180602001604052805f815250610881565b505050565b5f6106e382610aea565b9050919050565b5f5f73ffffffffffffffffffffffffffffffffffffffff168273ffffffffffffffffffffffffffffffffffffffff160361075b575f6040517f89c62b640000000000000000000000000000000000000000000000000000000081526004016107529190611f15565b60405180910390fd5b60035f8373ffffffffffffffffffffffffffffffffffffffff1673ffffffffffffffffffffffffffffffffffffffff1681526020019081526020015f20549050919050565b6107a8610bc2565b6107b15f610f4d565b565b5f60075f9054906101000a900473ffffffffffffffffffffffffffffffffffffffff16905090565b6060600180546107ea906123b0565b80601f0160208091040260200160405190810160405280929190818152602001828054610816906123b0565b80156108615780601f1061083857610100808354040283529160200191610861565b820191905f5260205f20905b81548152906001019060200180831161084457829003601f168201915b5050505050905090565b61087d610876610ba9565b8383611010565b5050565b61088c84848461051b565b6108a0610897610ba9565b858585856111e9565b50505050565b60606108b182611395565b9050919050565b5f60055f8473ffffffffffffffffffffffffffffffffffffffff1673ffffffffffffffffffffffffffffffffffffffff1681526020019081526020015f205f8373ffffffffffffffffffffffffffffffffffffffff1673ffffffffffffffffffffffffffffffffffffffff1681526020019081526020015f205f9054906101000a900460ff16905092915050565b3373ffffffffffffffffffffffffffffffffffffffff16610966826106d9565b73ffffffffffffffffffffffffffffffffffffffff16146109bc576040517f08c379a00000000000000000000000000000000000000000000000000000000081526004016109b3906124d3565b60405180910390fd5b5f3390506109c982610c49565b7fa0f88bdc93ff6217657196ec633234f6709c7e841f6bfc701d62861f30e40f0c82826040516109fa9291906124f1565b60405180910390a15050565b610a0e610bc2565b5f73ffffffffffffffffffffffffffffffffffffffff168173ffffffffffffffffffffffffffffffffffffffff1603610a7e575f6040517f1e4fbdf7000000000000000000000000000000000000000000000000000000008152600401610a759190611f15565b60405180910390fd5b610a8781610f4d565b50565b5f634906490660e01b7bffffffffffffffffffffffffffffffffffffffffffffffffffffffff1916827bffffffffffffffffffffffffffffffffffffffffffffffffffffffff19161480610ae35750610ae282611411565b5b9050919050565b5f5f610af5836114f2565b90505f73ffffffffffffffffffffffffffffffffffffffff168173ffffffffffffffffffffffffffffffffffffffff1603610b6757826040517f7e273289000000000000000000000000000000000000000000000000000000008152600401610b5e91906121a6565b60405180910390fd5b80915050919050565b5f60045f8381526020019081526020015f205f9054906101000a900473ffffffffffffffffffffffffffffffffffffffff169050919050565b5f33905090565b610bbd838383600161152b565b505050565b610bca610ba9565b73ffffffffffffffffffffffffffffffffffffffff16610be86107b3565b73ffffffffffffffffffffffffffffffffffffffff1614610c4757610c0b610ba9565b6040517f118cdaa7000000000000000000000000000000000000000000000000000000008152600401610c3e9190611f15565b60405180910390fd5b565b5f610c555f835f610ccb565b90505f73ffffffffffffffffffffffffffffffffffffffff168173ffffffffffffffffffffffffffffffffffffffff1603610cc757816040517f7e273289000000000000000000000000000000000000000000000000000000008152600401610cbe91906121a6565b60405180910390fd5b5050565b5f5f610cd6846114f2565b90505f73ffffffffffffffffffffffffffffffffffffffff168373ffffffffffffffffffffffffffffffffffffffff1614610d1757610d168184866116ea565b5b5f73ffffffffffffffffffffffffffffffffffffffff168173ffffffffffffffffffffffffffffffffffffffff1614610da257610d565f855f5f61152b565b600160035f8373ffffffffffffffffffffffffffffffffffffffff1673ffffffffffffffffffffffffffffffffffffffff1681526020019081526020015f205f82825403925050819055505b5f73ffffffffffffffffffffffffffffffffffffffff168573ffffffffffffffffffffffffffffffffffffffff1614610e2157600160035f8773ffffffffffffffffffffffffffffffffffffffff1673ffffffffffffffffffffffffffffffffffffffff1681526020019081526020015f205f82825401925050819055505b8460025f8681526020019081526020015f205f6101000a81548173ffffffffffffffffffffffffffffffffffffffff021916908373ffffffffffffffffffffffffffffffffffffffff160217905550838573ffffffffffffffffffffffffffffffffffffffff168273ffffffffffffffffffffffffffffffffffffffff167fddf252ad1be2c89b69c2b068fc378daa952ba7f163c4a11628f55a4df523b3ef60405160405180910390a4809150509392505050565b610eef828260405180602001604052805f8152506117ad565b5050565b8060065f8481526020019081526020015f209081610f1191906126b8565b507ff8e1a15aba9398e019f0b49df1a4fde98ee17ae345cb5f6b5e2c27f5033e8ce782604051610f4191906121a6565b60405180910390a15050565b5f60075f9054906101000a900473ffffffffffffffffffffffffffffffffffffffff1690508160075f6101000a81548173ffffffffffffffffffffffffffffffffffffffff021916908373ffffffffffffffffffffffffffffffffffffffff1602179055508173ffffffffffffffffffffffffffffffffffffffff168173ffffffffffffffffffffffffffffffffffffffff167f8be0079c531659141344cd1fd0a4f28419497f9722a3daafe3b4186f6b6457e060405160405180910390a35050565b5f73ffffffffffffffffffffffffffffffffffffffff168373ffffffffffffffffffffffffffffffffffffffff1603611080575f6040517fa9fbf51f0000000000000000000000000000000000000000000000000000000081526004016110779190611f15565b60405180910390fd5b5f73ffffffffffffffffffffffffffffffffffffffff168273ffffffffffffffffffffffffffffffffffffffff16036110f057816040517f5b08ba180000000000000000000000000000000000000000000000000000000081526004016110e79190611f15565b60405180910390fd5b8060055f8573ffffffffffffffffffffffffffffffffffffffff1673ffffffffffffffffffffffffffffffffffffffff1681526020019081526020015f205f8473ffffffffffffffffffffffffffffffffffffffff1673ffffffffffffffffffffffffffffffffffffffff1681526020019081526020015f205f6101000a81548160ff0219169083151502179055508173ffffffffffffffffffffffffffffffffffffffff168373ffffffffffffffffffffffffffffffffffffffff167f17307eab39ab6107e8899845ad3d59bd9653f200f220920489ca2b5937696c31836040516111dc9190611dcf565b60405180910390a3505050565b5f8373ffffffffffffffffffffffffffffffffffffffff163b111561138e578273ffffffffffffffffffffffffffffffffffffffff1663150b7a02868685856040518563ffffffff1660e01b815260040161124794939291906127d9565b6020604051808303815f875af192505050801561128257506040513d601f19601f8201168201806040525081019061127f9190612837565b60015b611303573d805f81146112b0576040519150601f19603f3d011682016040523d82523d5f602084013e6112b5565b606091505b505f8151036112fb57836040517f64a0ae920000000000000000000000000000000000000000000000000000000081526004016112f29190611f15565b60405180910390fd5b805160208201fd5b63150b7a0260e01b7bffffffffffffffffffffffffffffffffffffffffffffffffffffffff1916817bffffffffffffffffffffffffffffffffffffffffffffffffffffffff19161461138c57836040517f64a0ae920000000000000000000000000000000000000000000000000000000081526004016113839190611f15565b60405180910390fd5b505b5050505050565b60606113a082610aea565b505f6113aa6117d0565b90505f6113b6846117e6565b90505f8251036113ca57809250505061140c565b5f815111156113fe5781816040516020016113e692919061289c565b6040516020818303038152906040529250505061140c565b61140784611887565b925050505b919050565b5f7f80ac58cd000000000000000000000000000000000000000000000000000000007bffffffffffffffffffffffffffffffffffffffffffffffffffffffff1916827bffffffffffffffffffffffffffffffffffffffffffffffffffffffff191614806114db57507f5b5e139f000000000000000000000000000000000000000000000000000000007bffffffffffffffffffffffffffffffffffffffffffffffffffffffff1916827bffffffffffffffffffffffffffffffffffffffffffffffffffffffff1916145b806114eb57506114ea826118ed565b5b9050919050565b5f60025f8381526020019081526020015f205f9054906101000a900473ffffffffffffffffffffffffffffffffffffffff169050919050565b808061156357505f73ffffffffffffffffffffffffffffffffffffffff168273ffffffffffffffffffffffffffffffffffffffff1614155b15611695575f61157284610aea565b90505f73ffffffffffffffffffffffffffffffffffffffff168373ffffffffffffffffffffffffffffffffffffffff16141580156115dc57508273ffffffffffffffffffffffffffffffffffffffff168173ffffffffffffffffffffffffffffffffffffffff1614155b80156115ef57506115ed81846108b8565b155b1561163157826040517fa9fbf51f0000000000000000000000000000000000000000000000000000000081526004016116289190611f15565b60405180910390fd5b811561169357838573ffffffffffffffffffffffffffffffffffffffff168273ffffffffffffffffffffffffffffffffffffffff167f8c5be1e5ebec7d5bd14f71427d1e84f3dd0314c0f7b2291e5b200ac8c7c3b92560405160405180910390a45b505b8360045f8581526020019081526020015f205f6101000a81548173ffffffffffffffffffffffffffffffffffffffff021916908373ffffffffffffffffffffffffffffffffffffffff16021790555050505050565b6116f5838383611956565b6117a8575f73ffffffffffffffffffffffffffffffffffffffff168373ffffffffffffffffffffffffffffffffffffffff160361176957806040517f7e27328900000000000000000000000000000000000000000000000000000000815260040161176091906121a6565b60405180910390fd5b81816040517f177e802f00000000000000000000000000000000000000000000000000000000815260040161179f9291906128bf565b60405180910390fd5b505050565b6117b78383611a16565b6117cb6117c2610ba9565b5f8585856111e9565b505050565b606060405180602001604052805f815250905090565b606060065f8381526020019081526020015f208054611804906123b0565b80601f0160208091040260200160405190810160405280929190818152602001828054611830906123b0565b801561187b5780601f106118525761010080835404028352916020019161187b565b820191905f5260205f20905b81548152906001019060200180831161185e57829003601f168201915b50505050509050919050565b606061189282610aea565b505f61189c6117d0565b90505f8151116118ba5760405180602001604052805f8152506118e5565b806118c484611b09565b6040516020016118d592919061289c565b6040516020818303038152906040525b915050919050565b5f7f01ffc9a7000000000000000000000000000000000000000000000000000000007bffffffffffffffffffffffffffffffffffffffffffffffffffffffff1916827bffffffffffffffffffffffffffffffffffffffffffffffffffffffff1916149050919050565b5f5f73ffffffffffffffffffffffffffffffffffffffff168373ffffffffffffffffffffffffffffffffffffffff1614158015611a0d57508273ffffffffffffffffffffffffffffffffffffffff168473ffffffffffffffffffffffffffffffffffffffff1614806119ce57506119cd84846108b8565b5b80611a0c57508273ffffffffffffffffffffffffffffffffffffffff166119f483610b70565b73ffffffffffffffffffffffffffffffffffffffff16145b5b90509392505050565b5f73ffffffffffffffffffffffffffffffffffffffff168273ffffffffffffffffffffffffffffffffffffffff1603611a86575f6040517f64a0ae92000000000000000000000000000000000000000000000000000000008152600401611a7d9190611f15565b60405180910390fd5b5f611a9283835f610ccb565b90505f73ffffffffffffffffffffffffffffffffffffffff168173ffffffffffffffffffffffffffffffffffffffff1614611b04575f6040517f73c6ac6e000000000000000000000000000000000000000000000000000000008152600401611afb9190611f15565b60405180910390fd5b505050565b60605f6001611b1784611bd3565b0190505f8167ffffffffffffffff811115611b3557611b34612019565b5b6040519080825280601f01601f191660200182016040528015611b675781602001600182028036833780820191505090505b5090505f82602083010190505b600115611bc8578080600190039150507f3031323334353637383961626364656600000000000000000000000000000000600a86061a8153600a8581611bbd57611bbc6128e6565b5b0494505f8503611b74575b819350505050919050565b5f5f5f90507a184f03e93ff9f4daa797ed6e38ed64bf6a1f0100000000000000008310611c2f577a184f03e93ff9f4daa797ed6e38ed64bf6a1f0100000000000000008381611c2557611c246128e6565b5b0492506040810190505b6d04ee2d6d415b85acef81000000008310611c6c576d04ee2d6d415b85acef81000000008381611c6257611c616128e6565b5b0492506020810190505b662386f26fc100008310611c9b57662386f26fc100008381611c9157611c906128e6565b5b0492506010810190505b6305f5e1008310611cc4576305f5e1008381611cba57611cb96128e6565b5b0492506008810190505b6127108310611ce9576127108381611cdf57611cde6128e6565b5b0492506004810190505b60648310611d0c5760648381611d0257611d016128e6565b5b0492506002810190505b600a8310611d1b576001810190505b80915050919050565b5f604051905090565b5f5ffd5b5f5ffd5b5f7fffffffff0000000000000000000000000000000000000000000000000000000082169050919050565b611d6981611d35565b8114611d73575f5ffd5b50565b5f81359050611d8481611d60565b92915050565b5f60208284031215611d9f57611d9e611d2d565b5b5f611dac84828501611d76565b91505092915050565b5f8115159050919050565b611dc981611db5565b82525050565b5f602082019050611de25f830184611dc0565b92915050565b5f81519050919050565b5f82825260208201905092915050565b8281835e5f83830152505050565b5f601f19601f8301169050919050565b5f611e2a82611de8565b611e348185611df2565b9350611e44818560208601611e02565b611e4d81611e10565b840191505092915050565b5f6020820190508181035f830152611e708184611e20565b905092915050565b5f819050919050565b611e8a81611e78565b8114611e94575f5ffd5b50565b5f81359050611ea581611e81565b92915050565b5f60208284031215611ec057611ebf611d2d565b5b5f611ecd84828501611e97565b91505092915050565b5f73ffffffffffffffffffffffffffffffffffffffff82169050919050565b5f611eff82611ed6565b9050919050565b611f0f81611ef5565b82525050565b5f602082019050611f285f830184611f06565b92915050565b611f3781611ef5565b8114611f41575f5ffd5b50565b5f81359050611f5281611f2e565b92915050565b5f5f60408385031215611f6e57611f6d611d2d565b5b5f611f7b85828601611f44565b9250506020611f8c85828601611e97565b9150509250929050565b5f60208284031215611fab57611faa611d2d565b5b5f611fb884828501611f44565b91505092915050565b5f5f5f60608486031215611fd857611fd7611d2d565b5b5f611fe586828701611f44565b9350506020611ff686828701611f44565b925050604061200786828701611e97565b9150509250925092565b5f5ffd5b5f5ffd5b7f4e487b71000000000000000000000000000000000000000000000000000000005f52604160045260245ffd5b61204f82611e10565b810181811067ffffffffffffffff8211171561206e5761206d612019565b5b80604052505050565b5f612080611d24565b905061208c8282612046565b919050565b5f67ffffffffffffffff8211156120ab576120aa612019565b5b6120b482611e10565b9050602081019050919050565b828183375f83830152505050565b5f6120e16120dc84612091565b612077565b9050828152602081018484840111156120fd576120fc612015565b5b6121088482856120c1565b509392505050565b5f82601f83011261212457612123612011565b5b81356121348482602086016120cf565b91505092915050565b5f5f6040838503121561215357612152611d2d565b5b5f61216085828601611f44565b925050602083013567ffffffffffffffff81111561218157612180611d31565b5b61218d85828601612110565b9150509250929050565b6121a081611e78565b82525050565b5f6020820190506121b95f830184612197565b92915050565b6121c881611db5565b81146121d2575f5ffd5b50565b5f813590506121e3816121bf565b92915050565b5f5f604083850312156121ff576121fe611d2d565b5b5f61220c85828601611f44565b925050602061221d858286016121d5565b9150509250929050565b5f67ffffffffffffffff82111561224157612240612019565b5b61224a82611e10565b9050602081019050919050565b5f61226961226484612227565b612077565b90508281526020810184848401111561228557612284612015565b5b6122908482856120c1565b509392505050565b5f82601f8301126122ac576122ab612011565b5b81356122bc848260208601612257565b91505092915050565b5f5f5f5f608085870312156122dd576122dc611d2d565b5b5f6122ea87828801611f44565b94505060206122fb87828801611f44565b935050604061230c87828801611e97565b925050606085013567ffffffffffffffff81111561232d5761232c611d31565b5b61233987828801612298565b91505092959194509250565b5f5f6040838503121561235b5761235a611d2d565b5b5f61236885828601611f44565b925050602061237985828601611f44565b9150509250929050565b7f4e487b71000000000000000000000000000000000000000000000000000000005f52602260045260245ffd5b5f60028204905060018216806123c757607f821691505b6020821081036123da576123d9612383565b5b50919050565b5f6060820190506123f35f830186611f06565b6124006020830185612197565b61240d6040830184611f06565b949350505050565b7f4e487b71000000000000000000000000000000000000000000000000000000005f52601160045260245ffd5b5f61244c82611e78565b91507fffffffffffffffffffffffffffffffffffffffffffffffffffffffffffffffff820361247e5761247d612415565b5b600182019050919050565b7f43616c6c6572206973206e6f742074686520746f6b656e206f776e65720000005f82015250565b5f6124bd601d83611df2565b91506124c882612489565b602082019050919050565b5f6020820190508181035f8301526124ea816124b1565b9050919050565b5f6040820190506125045f830185612197565b6125116020830184611f06565b9392505050565b5f819050815f5260205f209050919050565b5f6020601f8301049050919050565b5f82821b905092915050565b5f600883026125747fffffffffffffffffffffffffffffffffffffffffffffffffffffffffffffffff82612539565b61257e8683612539565b95508019841693508086168417925050509392505050565b5f819050919050565b5f6125b96125b46125af84611e78565b612596565b611e78565b9050919050565b5f819050919050565b6125d28361259f565b6125e66125de826125c0565b848454612545565b825550505050565b5f5f905090565b6125fd6125ee565b6126088184846125c9565b505050565b5b8181101561262b576126205f826125f5565b60018101905061260e565b5050565b601f8211156126705761264181612518565b61264a8461252a565b81016020851015612659578190505b61266d6126658561252a565b83018261260d565b50505b505050565b5f82821c905092915050565b5f6126905f1984600802612675565b1980831691505092915050565b5f6126a88383612681565b9150826002028217905092915050565b6126c182611de8565b67ffffffffffffffff8111156126da576126d9612019565b5b6126e482546123b0565b6126ef82828561262f565b5f60209050601f831160018114612720575f841561270e578287015190505b612718858261269d565b86555061277f565b601f19841661272e86612518565b5f5b8281101561275557848901518255600182019150602085019450602081019050612730565b86831015612772578489015161276e601f891682612681565b8355505b6001600288020188555050505b505050505050565b5f81519050919050565b5f82825260208201905092915050565b5f6127ab82612787565b6127b58185612791565b93506127c5818560208601611e02565b6127ce81611e10565b840191505092915050565b5f6080820190506127ec5f830187611f06565b6127f96020830186611f06565b6128066040830185612197565b818103606083015261281881846127a1565b905095945050505050565b5f8151905061283181611d60565b92915050565b5f6020828403121561284c5761284b611d2d565b5b5f61285984828501612823565b91505092915050565b5f81905092915050565b5f61287682611de8565b6128808185612862565b9350612890818560208601611e02565b80840191505092915050565b5f6128a7828561286c565b91506128b3828461286c565b91508190509392505050565b5f6040820190506128d25f830185611f06565b6128df6020830184612197565b9392505050565b7f4e487b71000000000000000000000000000000000000000000000000000000005f52601260045260245ffdfea2646970667358221220972c2786a66f624a6a594297d31b82f7755af5fe65819eb0147f994c09d1f35f64736f6c634300081b0033",
  "linkReferences": {},
  "deployedLinkReferences": {}
}